{
  "contractName": "LandAcquisition",
  "abi": [
    {
      "anonymous": false,
      "inputs": [
        {
          "indexed": false,
          "internalType": "string",
          "name": "trackingId",
          "type": "string"
        },
        {
          "indexed": false,
          "internalType": "bytes32",
          "name": "dataHash",
          "type": "bytes32"
        },
        {
          "indexed": false,
          "internalType": "uint256",
          "name": "timestamp",
          "type": "uint256"
        }
      ],
      "name": "CitizenQueryAdded",
      "type": "event"
    },
    {
      "anonymous": false,
      "inputs": [
        {
          "indexed": false,
          "internalType": "string",
          "name": "surveyNumber",
          "type": "string"
        },
        {
          "indexed": false,
          "internalType": "bytes32",
          "name": "dataHash",
          "type": "bytes32"
        },
        {
          "indexed": false,
          "internalType": "uint256",
          "name": "timestamp",
          "type": "uint256"
        }
      ],
      "name": "LandRecordAdded",
      "type": "event"
    },
    {
      "inputs": [
        {
          "internalType": "string",
          "name": "",
          "type": "string"
        }
      ],
      "name": "citizenQueries",
      "outputs": [
        {
          "internalType": "bytes32",
          "name": "dataHash",
          "type": "bytes32"
        },
        {
          "internalType": "uint256",
          "name": "timestamp",
          "type": "uint256"
        }
      ],
      "stateMutability": "view",
      "type": "function",
      "constant": true
    },
    {
      "inputs": [
        {
          "internalType": "string",
          "name": "",
          "type": "string"
        }
      ],
      "name": "landRecords",
      "outputs": [
        {
          "internalType": "bytes32",
          "name": "dataHash",
          "type": "bytes32"
        },
        {
          "internalType": "uint256",
          "name": "timestamp",
          "type": "uint256"
        }
      ],
      "stateMutability": "view",
      "type": "function",
      "constant": true
    },
    {
      "inputs": [
        {
          "internalType": "string",
          "name": "surveyNumber",
          "type": "string"
        },
        {
          "internalType": "bytes32",
          "name": "dataHash",
          "type": "bytes32"
        }
      ],
      "name": "addLandRecord",
      "outputs": [],
      "stateMutability": "nonpayable",
      "type": "function"
    },
    {
      "inputs": [
        {
          "internalType": "string",
          "name": "surveyNumber",
          "type": "string"
        },
        {
          "internalType": "bytes32",
          "name": "dataHash",
          "type": "bytes32"
        }
      ],
      "name": "updateLandRecord",
      "outputs": [],
      "stateMutability": "nonpayable",
      "type": "function"
    },
    {
      "inputs": [
        {
          "internalType": "string",
          "name": "trackingId",
          "type": "string"
        },
        {
          "internalType": "bytes32",
          "name": "dataHash",
          "type": "bytes32"
        }
      ],
      "name": "addCitizenQuery",
      "outputs": [],
      "stateMutability": "nonpayable",
      "type": "function"
    },
    {
      "inputs": [
        {
          "internalType": "string",
          "name": "trackingId",
          "type": "string"
        },
        {
          "internalType": "bytes32",
          "name": "dataHash",
          "type": "bytes32"
        }
      ],
      "name": "updateCitizenQuery",
      "outputs": [],
      "stateMutability": "nonpayable",
      "type": "function"
    },
    {
      "inputs": [
        {
          "internalType": "string",
          "name": "surveyNumber",
          "type": "string"
        }
      ],
      "name": "getLandRecordHash",
      "outputs": [
        {
          "internalType": "bytes32",
          "name": "",
          "type": "bytes32"
        },
        {
          "internalType": "uint256",
          "name": "",
          "type": "uint256"
        }
      ],
      "stateMutability": "view",
      "type": "function",
      "constant": true
    },
    {
      "inputs": [
        {
          "internalType": "string",
          "name": "trackingId",
          "type": "string"
        }
      ],
      "name": "getCitizenQueryHash",
      "outputs": [
        {
          "internalType": "bytes32",
          "name": "",
          "type": "bytes32"
        },
        {
          "internalType": "uint256",
          "name": "",
          "type": "uint256"
        }
      ],
      "stateMutability": "view",
      "type": "function",
      "constant": true
    }
  ],
  "bytecode": "0x608060405234801561001057600080fd5b50610b9b806100206000396000f3fe608060405234801561001057600080fd5b50600436106100885760003560e01c806398123da81161005b57806398123da81461013c578063989ddd4314610158578063b766ae5d14610174578063d8a812c21461019057610088565b806317691cc11461008d5780632ee8117d146100be5780634fcd3f43146100ef5780637b19244a14610120575b600080fd5b6100a760048036038101906100a29190610715565b6101c1565b6040516100b5929190610949565b60405180910390f35b6100d860048036038101906100d39190610715565b6101fb565b6040516100e6929190610949565b60405180910390f35b61010960048036038101906101049190610715565b610252565b604051610117929190610949565b60405180910390f35b61013a60048036038101906101359190610756565b6102aa565b005b61015660048036038101906101519190610756565b610398565b005b610172600480360381019061016d9190610756565b610485565b005b61018e60048036038101906101899190610756565b610571565b005b6101aa60048036038101906101a59190610715565b61065e565b6040516101b8929190610949565b60405180910390f35b6001818051602081018201805184825260208301602085012081835280955050505050506000915090508060000154908060010154905082565b6000806000808460405161020f9190610932565b9081526020016040518091039020604051806040016040529081600082015481526020016001820154815250509050806000015181602001519250925050915091565b60008060006001846040516102679190610932565b9081526020016040518091039020604051806040016040529081600082015481526020016001820154815250509050806000015181602001519250925050915091565b60006001836040516102bc9190610932565b908152602001604051809103902060010154141561030f576040517f08c379a0000000000000000000000000000000000000000000000000000000008152600401610306906109f0565b60405180910390fd5b6040518060400160405280828152602001428152506001836040516103349190610932565b908152602001604051809103902060008201518160000155602082015181600101559050507f9891adff2bc00c583cd5c4d342b6d34ffbb9cf8a4f13f2704c0848b63b5fde3382824260405161038c93929190610972565b60405180910390a15050565b60006001836040516103aa9190610932565b908152602001604051809103902060010154146103fc576040517f08c379a00000000000000000000000000000000000000000000000000000000081526004016103f3906109b0565b60405180910390fd5b6040518060400160405280828152602001428152506001836040516104219190610932565b908152602001604051809103902060008201518160000155602082015181600101559050507f9891adff2bc00c583cd5c4d342b6d34ffbb9cf8a4f13f2704c0848b63b5fde3382824260405161047993929190610972565b60405180910390a15050565b600080836040516104969190610932565b908152602001604051809103902060010154146104e8576040517f08c379a00000000000000000000000000000000000000000000000000000000081526004016104df90610a10565b60405180910390fd5b60405180604001604052808281526020014281525060008360405161050d9190610932565b908152602001604051809103902060008201518160000155602082015181600101559050507fbc2dd71390a133297a0a39c64e57bd9403390df6a07a46fc10c07e9601a03b8382824260405161056593929190610972565b60405180910390a15050565b600080836040516105829190610932565b90815260200160405180910390206001015414156105d5576040517f08c379a00000000000000000000000000000000000000000000000000000000081526004016105cc906109d0565b60405180910390fd5b6040518060400160405280828152602001428152506000836040516105fa9190610932565b908152602001604051809103902060008201518160000155602082015181600101559050507fbc2dd71390a133297a0a39c64e57bd9403390df6a07a46fc10c07e9601a03b8382824260405161065293929190610972565b60405180910390a15050565b6000818051602081018201805184825260208301602085012081835280955050505050506000915090508060000154908060010154905082565b60006106ab6106a684610a61565b610a30565b9050828152602081018484840111156106c357600080fd5b6106ce848285610acc565b509392505050565b6000813590506106e581610b4e565b92915050565b600082601f8301126106fc57600080fd5b813561070c848260208601610698565b91505092915050565b60006020828403121561072757600080fd5b600082013567ffffffffffffffff81111561074157600080fd5b61074d848285016106eb565b91505092915050565b6000806040838503121561076957600080fd5b600083013567ffffffffffffffff81111561078357600080fd5b61078f858286016106eb565b92505060206107a0858286016106d6565b9150509250929050565b6107b381610ab8565b82525050565b60006107c482610a91565b6107ce8185610a9c565b93506107de818560208601610adb565b6107e781610b3d565b840191505092915050565b60006107fd82610a91565b6108078185610aad565b9350610817818560208601610adb565b80840191505092915050565b6000610830601483610a9c565b91507f517565727920616c7265616479206578697374730000000000000000000000006000830152602082019050919050565b6000610870601583610a9c565b91507f5265636f726420646f6573206e6f7420657869737400000000000000000000006000830152602082019050919050565b60006108b0601483610a9c565b91507f517565727920646f6573206e6f742065786973740000000000000000000000006000830152602082019050919050565b60006108f0601583610a9c565b91507f5265636f726420616c72656164792065786973747300000000000000000000006000830152602082019050919050565b61092c81610ac2565b82525050565b600061093e82846107f2565b915081905092915050565b600060408201905061095e60008301856107aa565b61096b6020830184610923565b9392505050565b6000606082019050818103600083015261098c81866107b9565b905061099b60208301856107aa565b6109a86040830184610923565b949350505050565b600060208201905081810360008301526109c981610823565b9050919050565b600060208201905081810360008301526109e981610863565b9050919050565b60006020820190508181036000830152610a09816108a3565b9050919050565b60006020820190508181036000830152610a29816108e3565b9050919050565b6000604051905081810181811067ffffffffffffffff82111715610a5757610a56610b0e565b5b8060405250919050565b600067ffffffffffffffff821115610a7c57610a7b610b0e565b5b601f19601f8301169050602081019050919050565b600081519050919050565b600082825260208201905092915050565b600081905092915050565b6000819050919050565b6000819050919050565b82818337600083830152505050565b60005b83811015610af9578082015181840152602081019050610ade565b83811115610b08576000848401525b50505050565b7f4e487b7100000000000000000000000000000000000000000000000000000000600052604160045260246000fd5b6000601f19601f8301169050919050565b610b5781610ab8565b8114610b6257600080fd5b5056fea2646970667358221220f1871a931447d19cc390be6af924cb2765735bae4774f69f7e7aa687da8681e864736f6c63430008000033",
  "immutableReferences": {},
  "source": "// SPDX-License-Identifier: MIT\r\npragma solidity ^0.8.0;\r\n\r\ncontract LandAcquisition {\r\n    struct Record {\r\n        bytes32 dataHash;\r\n        uint256 timestamp;\r\n    }\r\n\r\n    mapping(string => Record) public landRecords; // surveyNumber => Record\r\n    mapping(string => Record) public citizenQueries; // trackingId => Record\r\n\r\n    event LandRecordAdded(string surveyNumber, bytes32 dataHash, uint256 timestamp);\r\n    event CitizenQueryAdded(string trackingId, bytes32 dataHash, uint256 timestamp);\r\n\r\n    function addLandRecord(string memory surveyNumber, bytes32 dataHash) public {\r\n        require(landRecords[surveyNumber].timestamp == 0, \"Record already exists\");\r\n        landRecords[surveyNumber] = Record(dataHash, block.timestamp);\r\n        emit LandRecordAdded(surveyNumber, dataHash, block.timestamp);\r\n    }\r\n\r\n    function updateLandRecord(string memory surveyNumber, bytes32 dataHash) public {\r\n        require(landRecords[surveyNumber].timestamp != 0, \"Record does not exist\");\r\n        landRecords[surveyNumber] = Record(dataHash, block.timestamp);\r\n        emit LandRecordAdded(surveyNumber, dataHash, block.timestamp);\r\n    }\r\n\r\n    function addCitizenQuery(string memory trackingId, bytes32 dataHash) public {\r\n        require(citizenQueries[trackingId].timestamp == 0, \"Query already exists\");\r\n        citizenQueries[trackingId] = Record(dataHash, block.timestamp);\r\n        emit CitizenQueryAdded(trackingId, dataHash, block.timestamp);\r\n    }\r\n\r\n    function updateCitizenQuery(string memory trackingId, bytes32 dataHash) public {\r\n        require(citizenQueries[trackingId].timestamp != 0, \"Query does not exist\");\r\n        citizenQueries[trackingId] = Record(dataHash, block.timestamp);\r\n        emit CitizenQueryAdded(trackingId, dataHash, block.timestamp);\r\n    }\r\n\r\n    function getLandRecordHash(string memory surveyNumber) public view returns (bytes32, uint256) {\r\n        Record memory record = landRecords[surveyNumber];\r\n        return (record.dataHash, record.timestamp);\r\n    }\r\n\r\n    function getCitizenQueryHash(string memory trackingId) public view returns (bytes32, uint256) {\r\n        Record memory record = citizenQueries[trackingId];\r\n        return (record.dataHash, record.timestamp);\r\n    }\r\n}\r\n",
  "sourcePath": "C:\\Users\\bhise\\OneDrive\\Desktop\\landregistry\\landregitry-clone\\backend\\contracts\\LandAcquisition.sol",
  "compiler": {
    "name": "solc",
    "version": "0.8.0+commit.c7dfd78e.Emscripten.clang"
  },
  "schemaVersion": "3.4.16",
  "updatedAt": "2025-07-24T13:27:04.070Z",
  "networkType": "ethereum",
  "devdoc": {
    "kind": "dev",
    "methods": {},
    "version": 1
  },
  "userdoc": {
    "kind": "user",
    "methods": {},
    "version": 1
  }
}